:02000002B0004C
:1040000000400B00FC9C0B00000006000C000502A9
:084010000401E50C00000000B2
:0440180074870B009E
:10401C0009480A49884208B505D0094A824202D0AB
:10402C00121A04F045FA0748074A0021121A04F044
:10403C004DFA014808BD00BF10E50320689C0B0039
:10404C007CE503207CE50320EDE7032070B5074EEB
:10405C00074C03F0A5FFA41BA4080025AC4200D11B
:10406C0070BD56F8043B98470135F7E7189C0B00D8
:10407C003C9C0B0000F068BD08B500F047FCBDE8A7
:10408C00084003F045BF02F0B1BE02F0AFBE02F033
:10409C00B5BE02F0B3BE000008B5034A03490C20BC
:1040AC0002F0F0FDFEE700BF11690B0088870B00E2
:1040BC000078B0FA80F04009704701230370704714
:1040CC00B0B502F1080384B023F0070300AFADEBE9
:1040DC00030D1446684604F0EBF900236946384694
:1040EC000DF8043003F077FA2249384603F0BBFA96
:1040FC000446384603F024FA34B10121072003F0BA
:10410C00D0FF1037BD46B0BD6946384603F063FAA0
:10411C001949384603F0A7FA0546384603F010FA59
:10412C000DB12146EAE76946384603F054FA1349C3
:10413C00384603F08BFA0546384603F001FA002D99
:10414C00DFD10F4C204601F045FB204625610221B2
:10415C0001F087F96946384603F03DFA3968204684
:10416C0003F0B3F8384603F0EBF9204601F0A0FD5C
:10417C00C7E700BF9D870B009F870B00A8E60320B5
:10418C0038E6032008B502F0C5FB034B1860BDE808
:10419C00084002F0B3BD00BF28E7032003682BB131
:1041AC004268934202D2184604F07AB90020704754
:1041BC0038B50568044645B143689D4205D228468A
:1041CC0004F0C4F9013005442560204638BDF8B52B
:1041DC00044647680D4621B903687A1C4260D955DC
:1041EC00F8BD084604F0B2F9A368461CF2199A42CD
:1041FC00F6D8206832462946384404F059F96068EC
:10420C0030446060ECE7000038B504460B46D0E95A
:10421C0001012568044A091A284402F0FFFD63686D
:10422C0001300344636038BDA1870B0038B50446E8
:10423C000B46D0E901012568044A091A284402F00A
:10424C00EDFD636801300344636038BDA4870B0047
:10425C0010B5084C0968204603F0D1F903F0D2FDE3
:10426C00216803F032F8226803490448BDE8104085
:10427C0002F0ADB8A8E60320A8870B00D8E5032010
:10428C0008B500234377006803F0A4FCBDE80840A0
:10429C0002F04ABA2DE9F0438F188FB0B942CDE93C
:1042AC00051706468946904680F0C28005A80D8801
:1042BC00FFF77EFF0368BB4280F0BA800598037855
:1042CC00412B49D1013004F0EBF8052837DDFF24F0
:1042DC0047F276239D4200F0D38041D847F2612308
:1042EC009D4200F0A88047F264239D426BD046F6B5
:1042FC0070539D4241D1784D784EDFF8F48105988A
:10430C00B84280F095800378412B4BD1013004F0FA
:10431C00C7F8052839DDFF2405A8FFF749FFDDF8AC
:10432C0014902946484604F007F9014600283DD16F
:10433C00204603F0A5FE05A8FFF73AFFDFE7059836
:10434C00013004F0ADF80028C1DB0598013004F011
:10435C00A7F80E30C4B2BBE705A8FFF71FFFF9E7BB
:10436C0047F264739D424FD047F276739D4200F042
:10437C00978047F261739D426FD00023CDE90133E2
:10438C0002220092728B19463AE00598013004F033
:10439C0087F80028BFDB0598013004F081F80E3057
:1043AC00C4B2B9E705A8FFF7F9FEF9E7314648466C
:1043BC0004F0C2F828B14146484604F0BDF8002884
:1043CC00B9D10121B4E70AAB4549079307A81023DB
:1043DC000025CDE90853FFF7FAFE07A82146FFF7A1
:1043EC0013FF204603F076FE014607A8FFF71EFFD9
:1043FC00089BCDE90155013B0093079B2A461421EC
:10440C00304600F0E1FA13E005A8FFF7D1FE03688F
:10441C009F420DD9A4B20121204603F031FE05A81C
:10442C00FFF7BCFE011E18BF0121204603F039FE28
:10443C000FB0BDE8F0830AAB079307A810232949F6
:10444C000025CDE90853FFF7C2FE07A82146FFF768
:10445C00DBFE204603F051FEC6E705A8FFF7A8FED9
:10446C0003689F42E4D9A4B20121204603F008FE60
:10447C0005A8FFF793FE0146204603F055FED7E74B
:10448C0020468DF8284002F051F903460AA823B1C2
:10449C00154A934201D09847CAE702F043F9C7E79F
:1044AC0005A8FFF785FE059B8DF81C40A3EB0901C1
:1044BC00A8EB01012046CDE90A310C9102F040F93C
:1044CC0003460AA907A823B1084A934201D098478A
:1044DC00AEE702F028F9ABE7B5870B00B8870B0005
:1044EC00C0870B00C3870B0031670B0033670B00D1
:1044FC00BC870B002DE9F0418CB004AF04460522BB
:10450C000068391D03F007F898B3052804D0002083
:10451C002037BD46BDE8F081B7F805305BBA9AB2DA
:10452C00A7F80530B7F807305BBA1FFA83F8A7F87D
:10453C000730002AEBD03B7923BB02F0F1F802469E
:10454C00E060607FB7F80730C0B9B7F805100129F3
:10455C0014D1092B0FD0C82B01D0042BD8D1012595
:10456C0062612046657700F0DDFAFFF70BFE02F082
:10457C00DBF80120CCE703236377C9E7581F18BF8A
:10458C000120C5E7B8F5806F03D92046FFF778FE08
:10459C00EFE708F108036E46DB08A6EBC3039D4664
:1045AC0004AD20684246294602F0B5FF80454FF025
:1045BC0000007FD1B7F80730E85402F0B1F83B792E
:1045CC00E060142B00F0A68048D80F2B00F0A280DE
:1045DC0007D8022B48D0062B51D02046FFF750FEAF
:1045EC0058E0112BF9D100233B70B7F807302B445E
:1045FC009D42C7E903534DD207F10C00D5F800805A
:10460C00FFF7D6FDFB68B7F807105D1B4D1BC7E91C
:10461C0005357B68FD61C3F30F236383644B9845B9
:10462C0000F0BF8000F28C80A3F57F236FF4007242
:10463C001344984500F09D8079D8A3F50033063BD0
:10464C00984500F09C8003F50033033398456BD1FB
:10465C0007F11401384602F066F865E0292B1BD0EF
:10466C00372B17D01D2BB8D1637F43B90123637748
:10467C00204600F057FAFFF785FD02F055F80023AD
:10468C00C821B7F805200091CDE901331946204621
:10469C0000F09AF901200DE0A3681BB9402002F04C
:1046AC00A5FBA060B7F80780A8444545C7E90558A5
:1046BC0002D30020B5462BE729464022A06803F020
:1046CC004DFFA368002583F83F5007F11400FFF756
:1046DC006FFD036898451BD9786920B1BB69984276
:1046EC0014D203F0E1FE85B2206803F073FA23685C
:1046FC00A2685A631D870023637702F011F8A0F5B6
:10470C009C500838C4E903006061C3E72846EAE717
:10471C005025E9E77B68B7F80720C3F30F236383C1
:10472C0029462046FFF7B6FD00236383B2E7214BF1
:10473C009845F9D107F11401384601F0F4FFF3E77D
:10474C001D4B984521D003F19F6303F5003303F50E
:10475C00807398451FD003F16E4303F5302303F5A6
:10476C0086739845E0D107F11401384601F0DBFF60
:10477C00DAE707F11401384601F0D5FFD4E707F169
:10478C001401384601F0CFFFCEE707F1140138468B
:10479C0001F0C9FFC8E707F11401384601F0C3FF67
:1047AC00C2E707F11401384601F0BDFFBCE700BFBA
:1047BC00766673006462670061636F6E2DE9F04189
:1047CC0004468CB00D46FFF7DDFC637F022B1ED038
:1047DC00237F628B0133DBB22377AAB9022B13D868
:1047EC00206803F0BFF8A8B125B9206803F098F948
:1047FC0000280FDD2046FFF77DFE0028F5D120684C
:10480C0003F0E8F901F090FF237F013B23770CB014
:10481C00BDE8F08101F084FF0546206803F0A2F8A2
:10482C00677F012F064624D120B965612046FFF72A
:10483C0027FDE9E7E3684FF21862EB1A9342F5D8CB
:10484C004AF6C872934203D82369EB1A9342DBD918
:10485C00636941F27072EB1A9342D5D90023CDE90A
:10486C00013300931A460621204600F0ADF865612D
:10487C00CAE7002FC8D16369EB1A40B141F27072DC
:10488C009342C1D9206803F0A5F96777BCE741F2E0
:10489C0088329342B8D9206803F09CF9D4F800C050
:1048AC00DCF834E0BCF83880BEF1000F1BD0334686
:1048BC0042467146604602F0D7FF0128D7D16368A3
:1048CC00059301251846258303F040FE0022CDE90F
:1048DC000122059B00902A461D21204600F074F809
:1048EC002369636190E7084B06930CF120070FCF07
:1048FC0007AE0FC63B6833704246734606A9604646
:10490C0003F092F8D9E700BF24980B001FB5254897
:10491C0001F091FF24480021FFF750FF234801F0DC
:10492C00DBFB28B3214801F0AEFD1E4801F09CFFD3
:10493C0048B103F067FA1E4902F0C7FC1C4A1D4936
:10494C001A4801F044FD174801F098FF20B11A4AAB
:10495C001849164801F03BFD124801F099FFF0B1DF
:10496C00164A1449114805B05DF804EB01F02FBD4F
:10497C00684602F0CBF900990C4801F09DFC6846A2
:10498C0002F0DEFD0E49094801F0C5FE0949074851
:10499C0001F0C1FE0B49054801F0BDFEC5E705B0AD
:1049AC005DF804FB38E603207CE50320D8E5032002
:1049BC00DC870B00CF870B00D38D0B00DE870B0041
:1049CC00C6870B00A8870B002DE9F04F83B000AF12
:1049DC00044600683D6B884616469946EB4602F045
:1049EC00C1FF00287FD0B8F11D0F04D84C4B23FA1F
:1049FC0008F3DB0702D4637F012B74D146B9668BB5
:104A0C0036B9238B01339BB2002B71D02383268BB9
:104A1C00A8F10C03082B16D8D4E90323934238BF12
:104A2C00134603F1420A01F07BFEAAEB00000028BA
:104A3C0060DB00212046FFF7C1FE01F071FEAAEBFE
:104A4C0000000028F5DAB9F1000F5AD06B1D7A6B13
:104A5C00002ABA6B08BF002203EB020A0AF1070313
:104A6C0023F00703ADEB030DBB6BC7F804D0EA18BA
:104A7C00C2F3072376BA43EA02238DF80080ADF81F
:104A8C000160ADF80330B9F1000F3CD0002D3AD0E5
:104A9C002A4649460DF1050003F00AFD681D7B6BA3
:104AAC003BB1BB6B2BB11A467B68796B184403F096
:104ABC00FFFC002555452AD2AAEB05027B6820682D
:104ACC00B2F5806F28BF4FF48062591902F0FDFDDA
:104ADC000646002001F022FEBEB9206803F07AF8E9
:104AEC00667701F021FE0C37DD46BD46BDE8F08F40
:104AFC0001238BE7217F0029A5D12046FFF75EFE1D
:104B0C00A1E70523A3E70520C9E73544D2E703D085
:104B1C002046FFF7B5FBE6E701F002FE2061E2E775
:104B2C004500002000B595B004AB002201934F2343
:104B3C0000930292034B1121FFF746FF15B05DF86D
:104B4C0004FB00BF18880B002DE9F04194B003F072
:104B5C0059F94FF4165103F049F93248324D01F02E
:104B6C0041FEA223AC22A721009302A8EA2302F063
:104B7C009BFA03AC40F6B83001F0D0FD0FCC09AF76
:104B8C000FC723683B70294B6B6001F0C9FDA0F582
:104B9C009C5008380DF1240CC5E903006861BCE891
:104BAC000F000FAE0FC62C683B6833700FAF41F689
:104BBC00907323870FCF4FF00008C4F83480203453
:104BCC000FC43368237044F24F66286803F002F870
:104BDC0085F81D8001F0A4FD04466B7F012B0CD0E1
:104BEC0001F09EFD001BB04204D800212846FFF7BF
:104BFC00E5FDF2E76B7F012BE7D10121072003F0E4
:104C0C003FFA084800F0E6FD06484FF001134361F7
:104C1C00042100F026FC034814B0BDE8F04101F07B
:104C2C0047B800BF38E603207CE50320E0870B0083
:104C3C0013B5154C0021012002F044F8204603F076
:104C4C0013F804F11C0002F0EBF9104A104911485A
:104C5C000023C2E90043C2E90233C2E90433936181
:104C6C00938363632387009340F25B720A4B01F0DA
:104C7C0057F90721094801F087FD0949094802B095
:104C8C00BDE8104002F0A7BC9CE503207CE50320A6
:104C9C0001880B00D8E50320CD400B0038E603203B
:104CAC00CC8D0B00A8E603202DE9F04F85B01F46F4
:104CBC00BDF93880BDF83C30A8EB0209A7EB010A1E
:104CCC00B9F1000FB8BFC9F10009BAF1000FB8BFB4
:104CDC00CAF1000AD14583460C46154604DD3A4616
:104CEC002C4647460D469046BC4205DD2A464546B5
:104CFC00904622463C4617463E1BB2B20092A8EBA9
:104D0C00050282EAE271A1EBE271C6F3C03202FA4B
:104D1C0086F64545B4BF01224FF0FF320191761063
:104D2C000292BC421CDCDBF800200393D145D2F884
:104D3C001880C7BF294622462A4621465846C047F6
:104D4C00019A039BB61AB1B236B2002E05DA029A5A
:104D5C001544009A56182DB236B2013424B2E0E74D
:104D6C0005B0BDE8F08F704710B404682469A44600
:104D7C005DF8044B604730B40468BDF808500295E8
:104D8C00A46BA44630BC604730B40468BDF808502E
:104D9C000295E46BA44630BC604770B4BDF90C506E
:104DAC00BDF810600468CDE90356246CA44670BCB1
:104DBC0060472DE9F3411C460368BDF820805B6910
:104DCC0005461646013C34440F4624B298472B68DE
:104DDC00CDF8048000949C6A28463B4632463946FE
:104DEC00A0472B68DB6A284602B0BDE8F0411847A3
:104DFC002DE9F3411D460368BDF820805B6904462C
:104E0C0017460E469847CDE9007822686B1E33444E
:104E1C00956A20461BB23A463146A8472368DB6A9E
:104E2C00204602B0BDE8F04118472DE9F3471E4675
:104E3C000368BDF928905B69BDF82C800C460546CB
:104E4C00174698472644B4422B680BDACDF80080FD
:104E5C00D3F820A021464B463A4628460134D04789
:104E6C0024B2F0E7DB6A284602B0BDE8F0471847E9
:104E7C0013B502680191B0F90E100091146CB0F9E1
:104E8C000C3000221146A04702B010BD2DE9F743AB
:104E9C0099421646BDF92870BDF82C9002688046E0
:104EAC000D461C4613D1BE42C8BF3346CDF82890E0
:104EBC00C4BF3E461F467B1C946B9B1B1BB23246E9
:104ECC0029464046A44603B0BDE8F0436047BE42C5
:104EDC000AD19942C2BF0B4625461C46631CCDF82D
:104EEC002890D46B5B1BE9E753699847CDE90079AF
:104EFC00D8F8003040469F6A324623462946B847C8
:104F0C00D8F80030DB6A404603B0BDE8F0431847E0
:104F1C002DE9F3471D460368BDF82C805B69BDF98C
:104F2C00289004460F46164698472368CDF8008013
:104F3C00D3F824A032462B4639462046D047236866
:104F4C00CDF8008009F1FF323244D3F824A0394661
:104F5C002B46204612B2D0472368CDF80080D3F8F8
:104F6C0020A032464B4639462046D0476B1ED919F5
:104F7C002368CDF800801D6A20464B46324609B2A4
:104F8C00A8472368DB6A204602B0BDE8F047184703
:104F9C00704701F00303B0F90A208376C907B0F912
:104FAC00083059BF8381C2818281C3817047000060
:104FBC0030B54281C281074A074D018100248181AD
:104FCC004FF0FF31C0E905124460056004610477BD
:104FDC00046230BD01010001748D0B002DE9F04F0E
:104FEC0089B0CDE902120268BDF948800493BDF97D
:104FFC004C3052690593BDF850A00446904718F107
:10500C0007024FF0000648BF08F10E024FEAE20B10
:10501C0001963546039B019ABDF904109A18059B1D
:10502C008B4212B227DD049B33444FF000090693E8
:10503C000FFA89F080451FFA89F117DD4F0705BF7C
:10504C00069BC0106D001D5C18BFEDB22B060AD577
:10505C00029B206807921944836909B21F462046B7
:10506C005346B847079A09F10109E1E7019B01335F
:10507C0001935E44CEE72368DB6A204609B0BDE8A5
:10508C00F04F18472DE9F04F2DED028B91B01646DD
:10509C00026ABDF874809DF878509DF87C400391AD
:1050AC001F46BDF8703004938346002A40F0C5803B
:1050BC00B0F90C308B4240F34C81B0F90E30B34256
:1050CC0040F34781062313FB0513002B40F341816A
:1050DC0006EBC403002B40F33C81037F1BB9AF2FBD
:1050EC0084BF0137FFB2DBF8003058465B69984744
:1050FC000522099200220592984A07EB8703D318E0
:10510C000C93B3B20693059A0C9B9B5C0793ABB2C2
:10511C000B93BDF80C300893039B02FB05F919FAAD
:10512C0083F90FFA89F308EE103A08230A93039BCC
:10513C0002EB030A4FF000090FFA8AFA079ADBF820
:10514C000030D20752D5012D1FFA89F23ED1012C25
:10515C003CD19B6906991F46049B0A4412B25146E6
:10516C005846B84709F101034FFA83F9079B5B08CE
:10517C0007930A9B013B13F0FF030A93DED1059FB3
:10518C0001377BB20593099B013B13F0FF03099395
:10519C00B9D1049B43450FD0012DDBF800303BD136
:1051AC00012C39D10899CDF8008005311C6A3246A2
:1051BC00082309B25846A047DBF80030DB6A584692
:1051CC0011B0BDEC028BBDE8F04F1847069914FBEB
:1051DC0002F20A44049901910094DB6918EE101A4A
:1051EC001F4612B22B465846B847BBE7049A4245B5
:1051FC00B8D0012D1FFA89F207D1012C05D19B697A
:10520C0006991F460A444346A8E70699CDF8048040
:10521C0014FB02F20A44DFE70B9ACDF8048002EB90
:10522C008201089AE4000A4411460094DC69324673
:10523C002B4609B25846A047BEE7137A516812684C
:10524C000B92FF1AFFB201EBC70331F8372006921D
:10525C009A780992DA780C92012D93F9052093F93A
:10526C0006A00A9201D8012C57D9BDF92830089311
:10527C000FFA8AF30793DBF8003058465B699847BE
:10528C00B3B24FF000080E931AFA86F3C1464746A4
:10529C000F930C9B9F428FD2079B0E9A3B4403FBB0
:1052AC000423002205920F9A1BB202EB070A08EEA8
:1052BC00103A0FFA8AFA4346099A0599914241D25B
:1052CC005A1CD2B25B070D9207D1069B06990B9A1A
:1052DC0001339BB212F80190069319F0800F12D093
:1052EC00012DDBF80030BDF80C101AD1012C18D1AF
:1052FC000A9A9B691144059A11441E465246049B16
:10530C0009B25846B047059E0136F3B24FEA490937
:10531C0005935FFA89F90D9BCEE70023CDE907339E
:10532C00A9E70598089A024402FB0511049ACDE9F5
:10533C000042DB6918EE102A1E4609B22B4658466D
:10534C00B047E0E7099B013798445FFA88F8FFB251
:10535C009FE711B0BDEC028BBDE8F08F69880B00A4
:10536C00F0B5026A85B004460B46002A34D10A29EE
:10537C0008D1438A0282427E03EBC203638201207E
:10538C0005B0F0BD0D29FAD0E17E007E657E71B1CD
:10539C00B4F91060062111FB0061B4F90C60B14244
:1053AC00C1BFB4F91210228201EBC5026282E28AFB
:1053BC000192A28A0092CDE90205B4F91220B4F947
:1053CC0010102046FFF75EFE237E228A03EB430378
:1053DC0002EB43032382D2E70A2907D1002303827D
:1053EC00417E927A438A01FB0233C7E70D29C6D06E
:1053FC00157AA942C3D3517A9942C0D351685D1B27
:10540C00EDB201EBC505A87828B3E97819B3E17EB4
:10541C00267E677E91B195F905100844B4F91010F9
:10542C0006FB0011B4F90C00814207DD002020823C
:10543C00B4F91210927A02FB07126282E28A01928C
:10544C00A28A0092CDE90267B4F91220B4F91010C7
:10545C002046FFF717FE2979227E238A01FB0233AF
:10546C00B8E7012938BF01210176417670477047B2
:10547C0010B510210446FEF70CFE204610BD0EB4EC
:10548C0003B503AB002153F8042B019301F045FF46
:10549C0002B05DF804EB03B07047000073B504462E
:1054AC0008462279A36832B1A3B90B4902B0BDE812
:1054BC00704001F0F7BE094A267B094D0949647B0F
:1054CC00012E18BF2946CDE900140749FFF7D7FF75
:1054DC0002B070BD054AEFE7D58D0B00CC8D0B00EB
:1054EC00D18D0B00CD8D0B00EB8D0B00C48D0B0003
:1054FC0010B5044B03600446C06A08B101F07EFC91
:10550C00204610BDC4920B0010B50446FFF7F0FF07
:10551C0020465021FEF7BDFD204610BD002910B5D8
:10552C004BDBB0F90C408C4247DD002A45DBB0F96F
:10553C000E40944241DD847E022C1FD0032C26D0D9
:10554C00012C04D10489D24314440A4621B2012B04
:10555C0023D0022B32D083BB002A13460489C06AA5
:10556C00B8BFD31DDB1013FB041102F0070201239B
:10557C009340425C22EA030242541EE00489013C3F
:10558C00611A4489D243224409B212B2DFE744893A
:10559C00013C641A114622B2D9E7002A0489134649
:1055AC00B8BFD31DDB1013FB0411C36A02F0070054
:1055BC0001228240585C02435A5410BD002A134603
:1055CC000489C06AB8BFD31DDB1013FB041102F0B1
:1055DC000702012303FA02F2435C5A40CCE70000B5
:1055EC0070B504461D460026FFF7E2FC114B236004
:1055FC00666215B902F0D6FD0546FF2384F83330F8
:10560C0084F836309DF9103084F837300A4BA36398
:10561C00012384F83C30059BA3644FF6FF72069B74
:10562C00A286C4E90A562664A4F84460E3642046C2
:10563C0070BD00BFC4920B00108E0B00F8B5044671
:10564C00806A0D4690B194F9301001F0A5FCA06A67
:10565C00036800219B689847A06A036829469B68E9
:10566C009847A06ABDE8F84001F09DBC94F935302C
:10567C00014698B202F015FD606A20B12946BDE8DA
:10568C00F84001F02DBF0826802794F9330005EA75
:10569C00070180B202F005FD94F93400012180B2BB
:1056AC0002F0FFFC94F93400002180B202F0F9FC06
:1056BC00013E4FEA5707E8D1F8BD38B50446806A79
:1056CC000D4680B1A16C01F059FC002D204614BF91
:1056DC00A721A621FFF7B2FFA06A88B1E16CBDE853
:1056EC00384001F04BBC606A18B104F1380101F08C
:1056FC0089FE94F93600002180B202F0D2FCE4E776
:10570C0094F93600012180B202F0CBFC606A18B12A
:10571C00BDE8384001F05CBE38BD2DE9F8430446C5
:10572C00806A0D468F1840B394F9301001F034FCA8
:10573C00A06A036800219B6898470126AF42A06AC3
:10574C0017D01F2E0CD901F02EFC94F93010A06A42
:10575C0001F022FCA06A036800219B68984701268F
:10576C00A06A15F8011B036801369B689847F6B2CE
:10577C00E4E7BDE8F84301F016BC94F93530014676
:10578C0098B202F08EFCBD4222D0606A15F8019BE3
:10579C0018B1494601F0A4FEF5E708264FF0800841
:1057AC0094F9330009EA080180B202F07AFC94F90A
:1057BC003400012180B202F074FC94F93400002111
:1057CC0080B202F06EFC013E4FEA5808E8D1DAE7ED
:1057DC00BDE8F883B0F90A30DA1D48BF03F10E02B8
:1057EC00B0F90830C06AD2105A43002102F06EBEE4
:1057FC002DE9FF411E46C36A9DF8288004460F46DA
:10580C001546C3B12046FFF7E5FFB4F90A00B4F919
:10581C000810202821DC202301222038CDE9013278
:10582C0000EBD07073237339009301EBD171894B6A
:10583C0040F34F0221E0B0F90A30D81D48BF03F104
:10584C000E00B4F90830C010584301F0CFFAE062F2
:10585C000028D7D104B0BDE8F0814038C0F3C03285
:10586C0002FA80F240230120CDE901305223523953
:10587C000093794B01EBD1715210204641F34F014B
:10588C00FFF7ACFBA06A84F83170002878D0002DAB
:10589C0074D1B4F90A30202B0CBF3C253D2584F87B
:1058AC003050B8F1000F01D001F06CFBFEB194F94F
:1058BC00370000281BDB012180B202F0E1FB94F9D8
:1058CC003700012180B202F0ECFB012001F0CEFA8E
:1058DC0094F93700002180B202F0E3FB0A2001F0BA
:1058EC00C5FA94F93700012180B202F0DAFBA06A04
:1058FC00002874D0A16C01F041FB042257492046CA
:10590C00FFF70BFF61890139C9B22046FFF796FEFC
:10591C00534904222046FFF700FF94F93130012B44
:10592C000CBF102114212046FFF788FE04224D499C
:10593C002046FFF7F2FEA3684B4A93425CD14B49D9
:10594C0004222046FFF7E9FED9212046FFF776FE18
:10595C0094F93130012B0CBF2221F1212046FFF7A5
:10596C006DFE204642490622FFF7D7FEA06A0028AA
:10597C0063D0E16C01F002FB01206BE76DB28EE7A6
:10598C0094F93500012180B202F07AFB94F93600CB
:10599C00012180B202F074FB94F93600012180B22F
:1059AC0002F07FFB656A3DB1B8F1000F3FF47EAFAA
:1059BC00284601F0F9FC79E794F93300012180B213
:1059CC0002F05EFB94F93400012180B202F058FB26
:1059DC0094F93400294680B202F063FB66E7606AF2
:1059EC0018B104F1380101F00DFD94F936000021D5
:1059FC0080B202F056FB80E71E4A93420ED11E493C
:105A0C0003222046FFF789FE94F93130012B0CBF9D
:105A1C009F21CF212046FFF711FE95E7174A9342AD
:105A2C0092D1174903222046FFF777FE94F93130C3
:105A3C00012B0CBF1021AF21ECE794F936000121AA
:105A4C0080B202F02EFB606A002895D001F0C0FCF9
:105A5C0092E700BFDC900B001C8E0B0024930B0014
:105A6C0028930B002C930B008000200036930B0026
:105A7C0030930B00800040003A930B006000100044
:105A8C003D930B0070B5002ABDF810503DDBB0F90A
:105A9C000A40944239DD0029BEBF5B181BB20021BD
:105AAC00B0F90840CE18A642C4BF631A1BB2002B33
:105ABC002BDDC06AD61014FB0611014402F007005E
:105ACC0001228240012DD2B216D0022D0BD0E5B9A5
:105ADC00D243D2B20B44994217D011F8010B1040AB
:105AEC0001F8010CF7E70B4499420ED011F8010BA9
:105AFC00504001F8010CF7E70B44994205D011F81E
:105B0C00010B104301F8010CF7E770BDF0B500294B
:105B1C00BDF8145076DBB0F90860B14272DA002A95
:105B2C00BEBF9B181BB20022B0F90A40D718A7427F
:105B3C00C4BFA31A1BB2002B64DDC2F3C404C76A32
:105B4C0016FB041612F00702DBB207EB060423D097
:105B5C00C2F10802D2B22D4993423CBF4FF0FF0C68
:105B6C00A2EB030E895C3CBF4CFA0EFC0CEA010163
:105B7C00012D07D0022D2ED04DB917F806C02CEAF6
:105B8C00010103E017F806C041EA0C01B955934234
:105B9C0038D3B0F908100C449A1AD2B2072A0ED98D
:105BAC00022D1DD113462178C9432170083BB0F951
:105BBC000810DBB2072B0C44F5D802F007020AB32D
:105BCC00134B012D9B5C1AD0022D1CD0D5B9227819
:105BDC0022EA030315E017F806C081EA0C01D5E7A9
:105BEC00291E18BF01214942C9B213462170083B36
:105BFC00B0F90860DBB2072B3444F7D8DDE7227824
:105C0C0013432370F0BD22785340FAE714930B0032
:105C1C001C930B0070B41446827EBDF80C60022AF3
:105C2C000DD0032A18D0012A11D10289E44314445F
:105C3C0024B203960A46214670BCFFF767BF42891F
:105C4C000589E44319441444691A24B209B2039631
:105C5C00224670BCFFF716BF45891944691A09B270
:105C6C00E7E730B41446827EBDF80850022A0DD006
:105C7C00032A18D0012A11D1E2180489A41A24B2DB
:105C8C0002950A46214630BCFFF7FCBE0289C94387
:105C9C001144E2184489A41A09B224B2029522468E
:105CAC0030BCFFF733BF4289C943114409B2E7E75F
:105CBC002DE9F8430446806A002842D0A16C01F01B
:105CCC005DF9474905222046FFF727FD2189013957
:105CDC002046C9B2FFF7B2FCB4F90A30DE1D48BF4A
:105CEC0003F10E06D4E90A052389F61013FB06F618
:105CFC0015FA86F600283AD094F9301001F04CF9D8
:105D0C00A06A036840219B6898470127B542A06AA6
:105D1C0024D01F2F0CD901F046F994F93010A06A49
:105D2C0001F03AF9A06A036840219B689847012763
:105D3C00A06A15F8011B036801379B689847FFB2EE
:105D4C00E4E7606A18B104F1380101F05BFB94F9E7
:105D5C003600002180B202F0A4F9B2E701F023F979
:105D6C00A06A78B3E16CBDE8F84301F007B994F987
:105D7C003500012180B202F094F9AE42F0D0606A95
:105D8C0015F8019B18B1494601F0AAFBF5E7082765
:105D9C004FF0800894F9330009EA080180B202F050
:105DAC0080F994F93400012180B202F07AF994F967
:105DBC003400002180B202F074F9013F4FEA580818
:105DCC00E8D1DAE794F93600012180B202F069F9E2
:105DDC00606A18B1BDE8F84301F0FABABDE8F8837F
:105DEC0040930B0000210A22C0E9001270470023E7
:105DFC0010B50446C171837188B202F06BF908B119
:105E0C000323A37100F086FD206010BD38B50C464D
:105E1C0005461146A0B202F033F921462846BDE8EA
:105E2C003840FFF7E4BF38B50446C07902F052F9A8
:105E3C00A579003825F0080318BF0120C5F34005EB
:105E4C008542A3710AD000F065FDA379206083F030
:105E5C000203A371A079C0F3C00038BD00F05AFD55
:105E6C002368C01AA3889842F4D3A37903F00103E2
:105E7C00AB42EFD000F04EFDA379206083F001031C
:105E8C0043F00803E5E7807900F00900A0F108036E
:105E9C0058425841704791F85C3010B50446016087
:105EAC0013B1886D00F00EFD204610BD10B50368CF
:105EBC0093F85C20044612B1986D00F00BFD20465F
:105ECC0010BDF8B51F469DF8243004460D46164605
:105EDC002BB1012380F85C30583000F0E3FC089BB8
:105EEC0023630023636306B1A66425B1294604F13C
:105EFC00380001F084FB069B2365079BE069A4F83E
:105F0C004C70FF2BB8BFFF23A4F8543008B1FEF738
:105F1C00BEF8B4F85400FEF7B8F8E061F8BD000024
:105F2C002DE9FF4104460025174698460E4601F020
:105F3C009BFE0D49E56104F1380001F04CFB9DF826
:105F4C002830A564CDE90283FF220F23CDE900326E
:105F5C00204684F85C503B462A463146FFF7B1FF99
:105F6C00204604B0BDE8F081CC8D0B0010B5044682
:105F7C00204601F0D5FD0028FAD0204601F0BAFBEE
:105F8C00C0B210BD2DE9F04705468846FFF7EEFF7D
:105F9C00EB691870EB6993F800A04FF001090AF057
:105FAC00F00A00274C462846FFF7E0FF2646EB692F
:105FBC00985500F07F0313FB09F31F4401340306CB
:105FCC00A4B2BFB24FEAC919EDD4631EBAF1300FB7
:105FDC0088F800301ED12846FFF7C8FFEB6918552A
:105FEC002846FFF7C3FFF41C0236B6B2EB69A4B225
:105FFC0098550226B6B2BE420ED22846FFF7B6FF1F
:10600C00B5F85430A34284BFEB6918550134A4B2DF
:10601C000136EFE70026EDE7B5F85430A3422CBF6C
:10602C0020460020BDE8F0872DE9F34115461E46B9
:10603C001A4607460023964602A802F07F0CBEF1D2
:10604C007F0F03F10104034488BF4CF0800CBEF1B8
:10605C007F0F4FEAD212E4B203F804CC1ED8C4F17D
:10606C000403C4F10500E954224601A9284405EBB8
:10607C00030802F01DFA721C22444146384601F016
:10608C0024FB054600F046FC621C78623244A8B240
:10609C00131A5842584102B0BDE8F0812346CAE7B2
:1060AC000233F0B5054698B20023CE5C9CB256B1D3
:1060BC00B5F854C0844503F1010704D9441C1654A7
:1060CC003B46A0B2F1E799B2411A0A44210A02F800
:1060DC00021C02F8013CF0BD38B5044601F042FC4C
:1060EC00002814BF0125002502D1204601F072FDC5
:1060FC00284638BD2DE9F04788B00446DDF84080CD
:10610C009DF850A0894617461E46FFF7E5FF054649
:10611C00002840F0CD80214601A8FFF7BCFEA16C01
:10612C00002940F08880B4F84C20A16B2B46204607
:10613C0001F09AFB00287AD0012323849DF8543077
:10614C00E269042B5B4B40F08180186899889B793D
:10615C00ADF80C108DF80E300290C2F805009DF8C9
:10616C000E30BDF80C10A2F80910D3720C23B8F144
:10617C00000F00F081809DF848009DF844204001FC
:10618C0040EAC20040F00600C0B2BAF1000F01D1E3
:10619C0000F0FD001FB1002E70D140F08000E269CC
:1061AC00D054226DE169581C12120A549A1CE169F0
:1061BC00206D88540333E26949462046FFF770FF8F
:1061CC000346B8F1000F0BD0E26941462046FFF7B9
:1061DC0067FFE269139903462046FFF761FF034608
:1061EC0067B1E26939462046FFF75AFF03462EB1E4
:1061FC00E26931462046FFF753FF0346053BE2694F
:10620C009BB210212046FFF70FFF00F083FBC4E97F
:10621C0009004FF47A76204601F082FC88BB00F02E
:10622C0079FBA36AC01A236D73439842F3D92046B5
:10623C0001F0D0FC35E002A800F042FFB4F84C208D
:10624C002B4602A9204601F0EFFB73E7D3F80700B9
:10625C00D3F80B10DB7B0DF1080CACE803008CF8C9
:10626C00003002AB03CBC2F80500C2F809109CF851
:10627C00003053730E237AE7022086E740F0C0000B
:10628C008DE702A92046FFF77DFE0428CFD1E369F4
:10629C00DE78002ECBD100F03DFB0125A06284F806
:1062AC002C6001A8FFF702FE284608B0BDE8F08775
:1062BC000025F9E745930B007FB501230422CDE9B6
:1062CC0004320023CDE90233CDE900331A46FFF73F
:1062DC0011FF07B05DF804FB2DE9F74FDDF83C80AA
:1062EC009DF834509DF8389004468B4616461F4650
:1062FC00FFF7F2FE8246002851D0214601A8FFF795
:10630C00CAFDB4F85420E069002102F0DFF805233F
:10631C00E26959462046FFF7C3FE6B1E012B15D8C8
:10632C00218CE369013189B22184090A1954421C78
:10633C00E369218C92B20230995480B2B8F1000F0B
:10634C0004D0238C5A1C2284A8F8003000210B188E
:10635C008F42E2699BB20AD9B4F854C09C4506D965
:10636C0016F801C002F803C0013189B2EFE79DF8BD
:10637C00301000290CBF30213121B9F1000F01D0B0
:10638C0041F00801022D0ED141F00401053B9BB2F6
:10639C002046FFF749FE824601A8FFF787FD5046CD
:1063AC0003B0BDE8F08F012D08BF41F00201EDE70D
:1063BC001FB5089C0394002402949DF81C40019482
:1063CC009DF818400094FFF787FF04B010BD30B55E
:1063DC0087B0044610460591049202F0B7F80025E8
:1063EC000346CDE90155DDE9042100952046FFF770
:1063FC00DFFF07B030BD73B504460E46FFF76CFEE9
:10640C000546C8B1214601A8FFF745FDE3696222A4
:10641C001A70E36902225A70E369320A9A70E369CE
:10642C00DE70E1690422204601F04FF9051E01A837
:10643C0018BF0125FFF73AFD284602B070BD73B5B1
:10644C0004460E46FFF748FE0546C8B1214601A892
:10645C00FFF721FDE36972221A70E36902225A7078
:10646C00E369320A9A70E369DE70E169042220461E
:10647C0001F02BF9051E01A818BF0125FFF716FD29
:10648C00284602B070BD2DE9F04F2DED028B87B080
:10649C0000AF0446FFF720FE8146F8B1214607F114
:1064AC001400FFF7F8FC00F035FA236D4FF47A7204
:1064BC005343A26A821A9A42064603D8626A821A27
:1064CC00934221D294F82C307BB1204601F082FB10
:1064DC004FF0000907F11400FFF7E8FC48461C37A1
:1064EC00BD46BDEC028BBDE8F08FE269C021117096
:1064FC00E2695370E1690222204601F0E6F8C4E932
:10650C000966012384F82C30204601F009FB002891
:10651C00E0D007F113012046FFF734FD8346002835
:10652C00D8D0E369A662197801F0F002302A7FD145
:10653C00D4F830A0BAF1000FCCD097F813C06A464B
:10654C0008EE102A03EB0C025178957805EB012527
:10655C00ADB205F108026946D208A1EBC20295461C
:10656C000CF10302FA6003EB020E0DEB0502684618
:10657C00C7F808D07A60D7E901218A4206D00A46CA
:10658C001EF8018B02F8018BBA60F4E70022425529
:10659C0093F80080F96808F00608ABEB0C02033A9C
:1065AC00B8F1020FA2EB0502294425D113F801E042
:1065BC001944023A91F801B00CF10501294419442F
:1065CC000BEB0E2BD047E36940221A70E3691FFADC
:1065DC008BFB83F80180E3694FEA1B229A70E36915
:1065EC0083F803B0E1690422204601F06EF866627C
:1065FC0018EE103A9D466DE7B8F1040F15D113F85B
:10660C0001E01944023A91F801B00CF1050129445A
:10661C0019440BEB0E2BD047E36950221A70E36937
:10662C0002221FFA8BFB5A70D5E71944D047DFE7DB
:10663C00502A08D19A78D97801EB022189B22046E8
:10664C00FFF7D9FE46E7402A12D1626B002A3FF4CD
:10665C0041AFBBF1040F7FF43DAF11F0060F7FF497
:10666C0039AF9978D87800EB012080B2904731E7A8
:10667C00602A08D19A78D97801EB022189B2204698
:10668C00FFF7DDFE26E7702ADFD0902A3FF422AF19
:10669C00C02A0AD1D0221A70E36900225A70E1692B
:1066AC000222204601F011F814E7D02A04BF00237F
:1066BC0084F82C300EE7F7B504460F461646FFF764
:1066CC000BFD054610B3214601A8FFF7E4FB238C14
:1066DC0001339BB2EBB12384238CE2691B0A537107
:1066EC00E369228C9A71E269072339462046FFF749
:1066FC00D7FCE3691E54043883B2E2698221204638
:10670C00FFF792FC054601A8FFF7D0FB284603B023
:10671C00F0BD0123DFE70022FFF7CDBF00F0A6BBE1
:10672C0000F0F8B8704770477047000003065ABF76
:10673C00024B53F820000020704700BF58930B0009
:10674C0003065ABF024B53F820000020704700BFCD
:10675C0058950B0010B5064B03600446006D08B14C
:10676C0000F0A8F82046FEF7C3FE204610BD00BF7F
:10677C0060970B0010B50446FFF7ECFF2046702124
:10678C00FDF787FC204610BD30B585B004460D469C
:10679C0001F008FD104A1149CDE901214FF0FF32FB
:1067AC0080210346009220462022FEF719FF0C4B55
:1067BC0023600023C4E9143504F15800FFF712FBE1
:1067CC0004F16000FFF70EFB04F16800FFF70AFB11
:1067DC00204605B030BD00BF801A0600A08601001F
:1067EC0060970B0013B50446503000F05BF8636DF6
:1067FC00D90705D50222042104F15800FFF706FB46
:10680C00636D9A0705D50022032104F16000FFF7A0
:10681C00FDFA636D5B0705D50222114604F1680091
:10682C00FFF7F4FA012300933C2202212046FEF7E5
:10683C00DFFF02B010BD10B5436DD907044602D579
:10684C005830FFF7F0FA636D9A0703D504F1600036
:10685C00FFF7E9FA636D5B0705D504F16800BDE845
:10686C001040FFF7E0BA10BD436D024613F0010073
:10687C0003D002F15800FFF706BB7047436D024688
:10688C0013F0020003D002F16000FFF7FCBA70476E
:10689C00436D024613F0040003D002F16800FFF7C9
:1068AC00F2BA704708B5024B1B681B6B019308BD0D
:1068BC004802030008B5024B1B685B6B019308BDD3
:1068CC004802030008B5024B1B689B6B019308BD83
:1068DC004802030008B5024B1B681B6C019308BDF2
:1068EC004802030008B5024B1B685B6C019308BDA2
:1068FC004802030008B5024B1B685B68019308BD96
:10690C001802030008B5024B1B68DB68019308BD35
:10691C001802030008B5024B1B685B69019308BDA4
:10692C001802030008B5024B1B685B68019308BD95
:10693C002C02030008B5024B1B689B68019308BD31
:10694C002C02030008B5024B1B68DB68019308BDE1
:10695C002C02030008B5024B1B681B69019308BD90
:10696C002C02030008B5024B1B685B69019308BD40
:10697C002C02030008B5024B1B689B6A019308BDEF
:10698C002C02030008B5024B1B681B6B019308BD5E
:10699C002C02030008B5024B1B689B6F019308BDCA
:1069AC002C02030008B5024B1B681B68019308BD41
:1069BC002802030008B5024B1B68DB68019308BD75
:1069CC002802030008B5024B1B689B69019308BDA4
:1069DC002802030008B5024B1B68DB69019308BD54
:1069EC002802030008B5024B1B681B6A019308BD03
:1069FC002802030008B5024B1B685B6A019308BDB3
:106A0C002802030008B5024B1B689B6A019308BD62
:106A1C002802030008B5024B1B68DB6A019308BD12
:106A2C002802030008B5024B1B681B6B019308BDC1
:106A3C002802030008B5024B1B685B6B019308BD71
:106A4C002802030008B5024B1B681B6C019308BDA0
:106A5C002802030008B5024B1B685B69019308BD53
:106A6C006C02030008B5024B1B685B69019308BDFF
:106A7C006402030008B5024B1B681B6A019308BD36
:106A8C006402030008B5024B1B689B6A019308BDA6
:106A9C006402030008B5024B1B689B68019308BD98
:106AAC006802030008B5024B1B68DB68019308BD44
:106ABC006802030008B5024B1B689B69019308BD73
:106ACC003802030008B5024B1B68DB69019308BD53
:106ADC003802030008B5024B1B681B6A019308BD02
:106AEC003802030008B5024B1B689B6A019308BD72
:106AFC003802030008B5024B1B681B6B019308BDE1
:106B0C003802030008B5024B1B689B6B019308BD50
:106B1C003802030008B5024B1B681B68019308BDC3
:106B2C003002030008B5024B1B685B69019308BD7A
:106B3C003002030008B5024B1B68DB69019308BDEA
:106B4C003002030008B5024B1B681B6A019308BD99
:106B5C003002030008B5024B1B685B6A019308BD49
:106B6C003002030008B5024B1B68DB6B019308BDB8
:106B7C003002030008B5024B1B681B6C019308BD67
:106B8C003002030008B5024B1B685B6C019308BD17
:106B9C003002030008B5024B1B68DB68019308BD8B
:106BAC003C02030008B5024B1B681B69019308BD2E
:106BBC003C02030008B5024B1B685B69019308BDDE
:106BCC003C02030008B5024B1B689B69019308BD8E
:106BDC003C02030008B5024B1B68DB69019308BD3E
:106BEC003C02030008B5024B1B681B6A019308BDED
:106BFC003C02030008B5024B1B689B6A019308BD5D
:106C0C003C02030008B5024B1B681B6C019308BDCA
:106C1C003C02030008B5024B1B681B68019308BDBE
:106C2C004C02030008B5024B1B685B68019308BD5E
:106C3C004C02030008B5024B1B681B69019308BD8D
:106C4C004C02030008B5024B1B685B69019308BD3D
:106C5C004C02030008B5024B1B689B69019308BDED
:106C6C004C02030008B5024B1B68DB69019308BD9D
:106C7C004C02030008B5024B1B681B6A019308BD4C
:106C8C004C02030008B5024B1B685B6B019308BDFB
:106C9C006002030008B5024B1B681B6D019308BD15
:106CAC006002030008B5024B1B685B68019308BDCA
:106CBC002002030008B5024B1B685B69019308BDF9
:106CCC002002030008B5024B1B68DB6A019308BD68
:106CDC002002030008B5034B1B68D3F888300193DE
:106CEC0008BD00002002030008B5034B1B68D3F855
:106CFC009430019308BD00002002030008B5024B3C
:106D0C001B689B68019308BD4402030008B5024B45
:106D1C001B68DB69019308BD4402030008B5024BF4
:106D2C001B68DB6B019308BD4402030008B5024BE2
:106D3C001B685B68019308BD4002030008B5024B59
:106D4C001B689B68019308BD4002030008B5024B09
:106D5C001B68DB68019308BD4002030008B5024BB9
:106D6C001B681B69019308BD4002030008B5024B68
:106D7C001B685B69019308BD4002030008B5024B18
:106D8C001B689B69019308BD4002030008B5024BC8
:106D9C001B68DB69019308BD4002030008B5024B78
:106DAC001B681B6A019308BD4002030008B5024B27
:106DBC001B681B6B019308BD4002030008B5024B16
:106DCC001B685B6B019308BD4002030008B5024BC6
:106DDC001B681B6C019308BD4002030008B5024BF5
:106DEC001B685B6C019308BD4002030008B5024BA5
:106DFC001B681B68019308BD1C02030008B5024BFD
:106E0C001B685B68019308BD1C02030008B5024BAC
:106E1C001B689B68019308BD1C02030008B5024B5C
:106E2C001B68DB69019308BD1C02030008B5024B0B
:106E3C001B685B6A019308BD1C02030008B5024B7A
:106E4C001B68DB6B019308BD1C02030008B5024BE9
:106E5C001B681B6C019308BD1C02030008B5024B98
:106E6C001B685B6C019308BD1C0203000021FFF73B
:106E7C0021BF0000024800230360FFF733BD00BFB1
:106E8C00C4E60320002240681146FFF787BF0022AA
:106E9C0040681146FFF792BF40680022FFF786BF9B
:106EAC004068002281F00101FFF770BF00234068A9
:106EBC001A461946FFF762BF002340681A46194666
:106ECC00FFF754BF002240681146FFF747BF00226E
:106EDC0040681146FFF732BF406800220221FFF7DD
:106EEC0035BF002340681A46FFF720BF024B032230
:106EFC005A60024A1A607047C8E60320C0970B001C
:106F0C007047F8B5064615460C468F18BC4206D09D
:106F1C00336814F8011B9B6830469847F6E72846FF
:106F2C00F8BD007C0022FFF75DBD007C0021FFF75F
:106F3C0061BD007C0021FFF765BD007C0021FFF7DF
:106F4C0069BD007C0021FFF76DBD10B5142104460E
:106F5C00FDF79FF8204610BD10B54FF47A73044628
:106F6C0008460021C4E90113034B23602074114629
:106F7C00FFF768FD204610BDFC970B00007C00223B
:106F8C00FFF710BD0023007C1A461946FFF712BD0F
:106F9C00007C0022FFF716BDC9B2FFF7F9BF007CD9
:106FAC000022FFF717BD0121FFF7F9BF704710B59D
:106FBC0018210446FDF76DF8204610BDF0B5037D91
:106FCC00062B8DB00E4600F104074FF0000412D0D2
:106FDC0000F1080515F8011D0A22304600F07FF972
:106FEC00AF42044419D0002CF4D02E21304600F0CE
:106FFC005DF90444EEE72F236A4639460A208DF8E2
:10700C000040FFF72FFD684601F0A0FA33680246F6
:10701C00DB68694630469847044620460DB0F0BD03
:10702C0010B5054B0446112240F8043B002101F039
:10703C004DFA204610BD00BF24980B000346074AAA
:10704C0010B543F8042B01F1100251F8044B43F82E
:10705C00044B9142F9D10A781A7010BD24980B0098
:10706C00037D042B04D14068003818BF0120704701
:10707C00062B07D143683BB983682BB9C3681BB98E
:10708C000069F1E7002070470120704710B59DF8AA
:10709C00084044EA032343EA024242EA0161042322
:1070AC004160037510BD000013B5044C04609DF8DD
:1070BC0010400094FFF7EAFF02B010BD24980B00BB
:1070CC0007B5064B0360CB7800938B784A78097828
:1070DC00FFF7DCFF03B05DF804FB00BF24980B0046
:1070EC00014B024A1A607047D0E6032030980B001F
:1070FC00002340681A46FFF719BE4068002202219F
:10710C00FFF724BE002240681146FFF717BE00228D
:10711C0040681146FFF722BE002340681A46194604
:10712C00FFF724BE002340681A461946FFF726BE17
:10713C0040680021FFF74ABE40680021FFF74EBEB1
:10714C004068002281F00101FFF720BE4068002258
:10715C00FFF72CBE002240681146FFF72FBE00221D
:10716C0040681146FFF71ABE2DE9F04395B014465E
:10717C000D460746FFF754FF00211C220DA8009175
:10718C0001F0A4F940230C9320466B460CAA002175
:10719C00FFF788FC044600284BD1024601216868A1
:1071AC00FFF7DCFD0221804622466868FFF7D6FD1A
:1071BC00009E81462146002E3BD0002939D17368B0
:1071CC00022B03D00A2B11D0F669F4E7B8F1000FAB
:1071DC00FAD0716906A8043107ADFFF771FF0FCD26
:1071EC003C1D0FC42B6823704146EDE7B9F1000F2D
:1071FC00EAD07469102201A801F068F906238DF811
:10720C00143001AD04F108031834186859682A4683
:10721C0003C20833A3421546F7D101A906A807AD4E
:10722C00FFF70CFF0FCD3C1D0FC42B682370494694
:10723C00CAE70098FFF72EFC384615B0BDE8F0837E
:10724C00024B034A1A6000225A607047D4E60320AE
:10725C003C980B00F8B506460D468F180024BD422D
:10726C000CD0336815F8011B9B6830469847031EF9
:10727C0001DB1C44F3E7002C08BF1C462046F8BD7C
:10728C0013B50446084659B1019101F05FF9236822
:10729C000199DB680246204602B0BDE81040184751
:1072AC0002B010BD08B5FFF7EBFF08BD03689B6883
:1072BC00184738B50D210546FFF7F8FF0A2104469B
:1072CC002846FFF7F3FF204438BD38B50546FFF7D5
:1072DC00D7FF04462846FFF7ECFF204438BD30B5F5
:1072EC008BB00023012A8DF8243098BF0A2209ACF8
:1072FC000D46B1FBF2F101FB125303F0FF03092B16
:10730C0094BF30333733DBB2AA4204F8013DEFD9D6
:10731C002146FFF7B5FF0BB030BD2DE9F04186B02B
:10732C0000AF05460E46381D142114463B60FFF78E
:10733C007DFD13280ED8391D2846FFF7A1FF044602
:10734C001EB12846FFF7B5FF044420461837BD464A
:10735C00BDE8F08100F1080323F00703E846ADEB2C
:10736C00030D2246411C3B686846FFF75FFD6946EA
:10737C002846FFF785FF0446C546E1E7014B00228E
:10738C009A607047DCE603200021FFF7FBBB00216D
:10739C00FFF7F0BB10B5044608462170FFF7CAFB97
:1073AC0000236360204610BD13B504460078FFF738
:1073BC00EEFF58B9207801904FF6FF71FFF7AAFB4A
:1073CC00019802B0BDE81040FFF7DEBF02B010BD5F
:1073DC000078FFF7D9BF0000400830B518600024D2
:1073EC0018688842E5B206D90134082C02D040084E
:1073FC001860F5E70725024B5B5D137030BD00BFCD
:10740C0070980B002DE9F04306468FB000780C46BF
:10741C00FFF7BDFF00281BDB35781422002109A8DB
:10742C0001F054F80B23002209A92846ADF82430AA
:10743C00FFF790FB9DF82D3013B19DF82C5055B1F2
:10744C000027B946B846012523795DB1C3B10020A8
:10745C000FB0BDE8F083DDF830809DF834909DF8D6
:10746C003570F1E7002B35D1A368434508D18DF871
:10747C0020908DF82170BDF82020A3899A42E6D087
:10748C000023A1688DF80F300A9804AB0DF10F02A0
:10749C00FFF7A2FF217985B989B9A36843450ED3BB
:1074AC008DF820908DF82170BDF82020A3899A4288
:1074BC0005D1049B434502D1C9E70029F9D100232A
:1074CC000193637B00939DF80F20237B3078FFF7AB
:1074DC0049FBBCE7CDE900552B462A460121F5E7CF
:1074EC0008B50078FFF71EFBC0B208BD10B5044606
:1074FC00FFF710FAE060236820465B699847002884
:10750C0008DAFFF707FAE368C01AA3689842F2D3C7
:10751C004FF0FF3010BD2DE9F04107460C468E1898
:10752C000D46B542A5EB040807D03846FFF7DEFF41
:10753C00031E02DB05F8013BF3E74046BDE8F08192
:10754C0010B504460068FFF759FC204610BD10B575
:10755C000446006808B1FFF751FC0023C4E901336D
:10756C00236010BD38B504460D4600680131FFF7A5
:10757C004DFC10B1C4E90005012038BD10B50368FD
:10758C00044623B143688B4201D3012010BD204631
:10759C00FFF7E8FF0028F9D0A368002BF5D122688B
:1075AC001370F2E737B50D46114601920446FFF70A
:1075BC00E5FF019A28B92046FFF7C9FF204603B022
:1075CC0030BDA2602946206800F072FF2268A368D3
:1075DC000021D154F2E7002313B5C0E9003304466F
:1075EC008360037341B10846019100F0AFFF01992C
:1075FC0002462046FFF7D6FF204602B010BD13B559
:10760C00044659B10846019100F0A0FF01990246C9
:10761C002046FFF7C7FF204602B010BDFFF797FFCB
:10762C00F9E702680B46096862B141B9806860B13C
:10763C0010787047986840B10978484270471046F6
:10764C0000F07ABF0029F5D10846704708B582686A
:10765C008B689A4205D1FFF7E4FFB0FA80F040093D
:10766C0008BD0020FCE708B582683AB921B108785A
:10767C00B0FA80F0400900E0012008BD006809B9AB
:10768C000078F5E700F058FFF2E70000054B022206
:10769C001A60054B054A9A600020C3E90000FFF709
:1076AC0001BB00BFF8E60320ECE603200000FFFF5F
:1076BC0013B503688DF80710DC6B01224FF0FF3314
:1076CC000DF10701A04702B010BD10B40368DC6BCC
:1076DC004FF0FF33A4465DF8044B604713B51346D7
:1076EC0002688DF80710D46B0DF107010122A04739
:1076FC0002B010BD10B54369B3F88620B3F88430DE
:10770C009A42044608D06369B3F88420511CA3F84C
:10771C0084101344187910BD03681B69984700281E
:10772C00F1D14FF0FF30F6E7704743691868C0435A
:10773C00C00F704770470000064B994210B500F11E
:10774C000C0405D0084600F093FD002808BF002467
:10775C00204610BDB0970B0010B5AC210446FCF7C9
:10776C0098FC204610BDAC21FCF793BC2DE9F041F0
:10777C004FF0000886B01C46C0F8048005460E4643
:10778C0017464146102202A800F0A0FE631C09D047
:10779C004FF47A73B4FBF3F203FB1244CDE90228E5
:1077AC005C430494686910230093006802AB41F2B7
:1077BC00050240F6FF71FFF77DF9002807DAFFF7A5
:1077CC003DFB03686B60002006B0BDE8F081686982
:1077DC00002300683A463146FFF78CF9031EEEDBB6
:1077EC001846F1E738B584690A4B036005467CB14D
:1077FC006368013B63605BB9236820469B689847CC
:10780C00A368013BA3601BB923682046DB6898473B
:10781C00284638BDB4980B0010B50446FFF7E2FFBC
:10782C0020461C21FCF735FC204610BD30B587B036
:10783C00044601AD6846FFF743FC0FCD04340FC47A
:10784C002B68237007B030BD70B54D69054B0446ED
:10785C008C3544F8043B06460FCD0FC42B682370BF
:10786C00304670BD24980B002DE9F0439846036810
:10787C0093B00D460024DB6A064617469847284607
:10788C006B46224621460094FFF70CF9054600286A
:10789C0063D1009B002B4BD05B69002B48D006A812
:1078AC00FFF7BEFB009B5C696378022B04D1211DA2
:1078BC0006A8FFF7BBFF26E00A2B24D1112229468C
:1078CC0001A800F003FEA368002B38D004F10803D4
:1078DC000DF1040C183418685968624603C2083359
:1078EC00A3429446F7D1062301A90CA88DF81430B5
:1078FC00FFF7A4FB0DF1340CBCE80F0007AC0FC470
:10790C00DCF80030237006A8FFF7AAFB80B13368BF
:10791C0007ADD3F82090124B0C930FCD0DAC0FC4C8
:10792C002B6823703A4643460CA93046C847054697
:10793C000098FFF7AFF8284613B0BDE8F083E36872
:10794C00002BC3D14FF6FF70D4F81090FFF792F8CC
:10795C008145BBD104F11401AAE72546E8E700BF35
:10796C0024980B0038B543691A68002A054610DACA
:10797C00B3F88620B3F884309A420AD103681B69A5
:10798C009847044628B92B682846DB6A9847204656
:10799C0038BD0120FCE710B54369B3F88620B3F875
:1079AC0084309A42044605D06369B3F884201344AA
:1079BC00187910BD03681B6998470028F4D14FF063
:1079CC00FF30F6E7F8B543691746B3F88620B3F8ED
:1079DC0084309A4205460E4616D06969B1F8843057
:1079EC00B1F88640E41ABC4228BF3C460433224618
:1079FC001944304600F05CFD6A69B2F884302344C7
:107A0C00A2F884302046F8BD03681B69984700280B
:107A1C00E3D14FF0FF34F5E742690023A2F884303C
:107A2C004269A2F8863070472DE9F0411F46036881
:107A3C000C46DB6A8AB0054616469847237DD5F876
:107A4C001480042B0CBF02200A2006220121FFF710
:107A5C0059F8C8F800006B691B68002B08DA2B6812
:107A6C002846DB6A0024984720460AB0BDE8F0811E
:107A7C002846FFF7D1FFB7B1002303A9F8B203934F
:107A8C00ADF81030FEF7E6FF0028E8D16869062350
:107A9C000093006803AB41F20B0240F6FF71FFF755
:107AAC0009F80028DBD11C22002103A800F00EFDF0
:107ABC00237D042B1DD14FF407733046ADF80C30E9
:107ACC00FEF7E0FFADF80E006068FEF7D3FF049000
:107ADC006B691C22186803A9FEF7FCFF0028BED1B5
:107AEC0004340FCC6D698C350FC523682B700124C1
:107AFC00BAE740F61C233046ADF80C30FEF7C2FF57
:107B0C0005AEADF80E00231D04F114071868596872
:107B1C00324603C20833BB421646F7D1D8E7000001
:107B2C0030B54269B2F886308BB004462BB1B2F84E
:107B3C0084209A4201D1FFF76FFF61690868002821
:107B4C0018DBB1F886507F2D14D804310823C5F109
:107B5C0080022944FEF7C6FF002813DD6369B3F8E1
:107B6C0086200AB9A3F884206369B3F886201044F0
:107B7C00A3F886006369B3F88600B3F88430C01AA2
:107B8C000BB030BDFFF75AF903680B2BF2D0FFF79F
:107B9C0055F903680B2BEDD020230025CDE90235D8
:107BAC00FFF74CF903680193084B0949009302AAAB
:107BBC002B463220FFF76EF863691868FEF782FFD8
:107BCC0063694FF0FF321A60D4E700BF7F980B0057
:107BDC0078980B0010B5436904461868002801DB3F
:107BEC00FEF770FF63694FF0FF321A606069112273
:107BFC0000218C3000F06AFC2046BDE81040FFF7F5
:107C0C000BBF10B5002304460160C0F884308830E7
:107C1C00FFF706FA204610BD73B500234FF47A72B5
:107C2C00C0E901320E4A0361026043610446AC2094
:107C3C000191FCF728FA051E05F10C0608D001236A
:107C4C00C5E90133074B01992B603046FFF7D9FF8B
:107C5C002046C4E90565FFF7DFFE02B070BD00BF2A
:107C6C00B4980B0098980B0010B54FF0FF310446F8
:107C7C00FFF7D2FF204610BD10B50446006800285F
:107C8C0001DBFEF71FFF204610BD0C30FFF7F4BFE1
:107C9C00024B1A68024B1A60704700BF10E50320B4
:107CAC00FCE6032070474174704708B5007CFEF772
:107CBC00A1FF20EAE07008BD08B5007CFEF772FF5A
:107CCC0020EAE07008BD08B5007CFEF77BFF40EAB7
:107CDC00E07008BD08B5007CFEF76CFF40EAE07070
:107CEC0008BD007CFEF776BF37B5457C04462DB148
:107CFC00207C03B0BDE83040FEF74CBF007C019106
:107D0C00FEF778FF00280199F2DC284603B030BD5D
:107D1C0010B514210446FCF7BCF9204610BD000038
:107D2C0010B54FF47A730446084611460022C4E994
:107D3C000123044B2360012320746374FEF762FF5C
:107D4C00204610BD1C990B0041747047704770475A
:107D5C0008B50021007CFEF77DFF40EAE07008BD0D
:107D6C0008B50121007CFEF775FF40EAE07008BD04
:107D7C0008B5007CFEF766FF20EAE07008BD08B588
:107D8C00007CFEF757FF20EAE07008BD13B50446EF
:107D9C00007C0191FEF756FF0028019901DC607C04
:107DAC0020B1207CFEF75EFF20EAE07002B010BD2F
:107DBC00007CFEF75FBF10B514210446FCF769F98F
:107DCC00204610BD10B54FF47A73044608460021C6
:107DDC00C4E90113044B236001232074637411461E
:107DEC00FEF718FF204610BD4C990B00007C0022BA
:107DFC00FEF718BF10B514220446002100F066FBF4
:107E0C00204610BD10B50F4C88B003A8FFF7F2FF49
:107E1C002178BFF35B8F11F001010FD12046019146
:107E2C00FCF746F9019948B103AA0748FFF7CAFFC6
:107E3C002046FCF742F9054800F02CFB024808B03C
:107E4C0010BD00BF00E7032004E70320597D0B00A1
:107E5C00002240681146FEF781BF0022406811469F
:107E6C00FEF79CBF002240681146FEF7A7BF406892
:107E7C000022FEF79BBF4068002281F00101FEF753
:107E8C0085BF002340681A461946FEF777BF0023CA
:107E9C0040681A461946FEF769BF00224068114631
:107EAC00FEF74CBF406800220221FEF74FBF0023B3
:107EBC0040681A46FEF73ABF024B04225A60024A47
:107ECC001A60704718E703207C990B00014B18606F
:107EDC00704700BF14E5032008B50B4B43B1FFF707
:107EEC0091FF03681B699847002801DDAFF3008000
:107EFC00064B43B100F096F903681B6998470028BC
:107F0C0001DDAFF3008008BD0000000000000000A0
:107F1C0008B5FFF7E1FFFEF7FDFC014B186008BD4B
:107F2C0028E703200548064A064908B5121A00F04E
:107F3C00BFFA054B054A1A6008BD00BF00F40320C8
:107F4C0004F40320649C0B0000F403201E1C279AED
:107F5C0007B5002300931A466FF07701FEF7C4FEB5
:107F6C0003B05DF804FB000007B543880A2B08D06A
:107F7C00502B0BD1094B1B684BB103B05DF804EBD4
:107F8C001847FFF7E5FF03B05DF804FB00230093EF
:107F9C001A466FF07701FEF7A7FEF4E724E70320FB
:107FAC0010B512480021FEF759FF114B1A68114BFE
:107FBC009A42114B0CBF012200221A7001D0FFF71C
:107FCC00B1FFFEF797FC044600F088FA0B4B13B197
:107FDC002046AFF3008000210848FEF79FFEBDE865
:107FEC00104007480021FEF775BE00BFD97E0B007C
:107FFC0000F403201E1C279A20E703200000000039
:10800C00757F0B00232813B502D9002002B010BDD8
:10801C00A0F10B03022B1AD8174C2178BFF35B8FFE
:10802C0011F001010BD120460191FCF741F80199A7
:10803C0028B11248FFF7AEF92046FCF73EF80F4B7B
:10804C001878FEF77FFD0028DFD10120DEE701283C
:10805C0009D800F0A7F80021007CFEF7EBFC80F0BB
:10806C000100C0B2D2E709380128EED800F0DAF8E6
:10807C00007CFEF7B7FDF2E7B8E60320BCE6032070
:10808C00232838B504460D460AD8FF2908D0FFF737
:10809C00B9FF28B129462046BDE83840FEF74ABC56
:1080AC0038BD38B504460D46FEF74CFCFF2810D001
:1080BC00062804D84D2323FA00F0C30709D4204620
:1080CC00FFF7A0FF28B129462046BDE83840FEF74F
:1080DC0041BC38BD10B50446FEF734FC031FDBB2BF
:1080EC00012B08D92046FFF78DFF20B12046BDE8B3
:1080FC001040FEF737BC002010BD0D2810B504460B
:10810C009CBF0E34A4B22046FFF77CFF50B1032174
:10811C002046FEF707FC032804D12046BDE810409A
:10812C00FEF730BC002010BD38B504460D46FFF7F5
:10813C0069FFF0B104212046FEF7F4FB042805D1B9
:10814C00A9B22046BDE83840FEF714BC02212046F7
:10815C00FEF7E8FB02280CD12046FEF7F3FB0128C2
:10816C0001D0042805D129462046BDE83840FEF749
:10817C0011BC38BD7047000038B5202514230446C7
:10818C000360856005610649284600F06FF80449D4
:10819C006060284600F06AF8E060204638BD00BFF9
:1081AC00B0990B0030B50E4D2978BFF35B8F11F0F1
:1081BC00010487B011D12846FBF77AFF68B101A8FA
:1081CC00FFF7DAFF01AA21460648FEF7C5FE28464E
:1081DC00FBF773FF044800F05DF9024807B030BDAF
:1081EC002CE7032030E7032081810B00704700004F
:1081FC0038B5044614252A46002100F067F925807D
:10820C004025074925812846258200F02FF804498E
:10821C006060284600F02AF8E060204638BD00BFB8
:10822C00B0990B0030B50E4D2978BFF35B8F11F070
:10823C00010487B011D12846FBF73AFF68B101A8B9
:10824C00FFF7D6FF01AA21460648FFF769FD28462D
:10825C00FBF733FF044800F01DF9024807B030BDAE
:10826C0044E7032048E70320F9810B00FBF70DBF1F
:10827C00014900F0F9B800BFCC990B007FB5002480
:10828C001023CDE90234036815469E6912686B46CB
:10829C00CDE90044B0479DF8043003F00603062BEB
:1082AC0003BF009B2B600120204604B070BD0098DA
:1082BC00904214BF012006207047000010B5034BFC
:1082CC000360044600F0CDF8204610BD0C9A0B005C
:1082DC0010B50446FFF7F2FF20460821FBF7D9FE44
:1082EC00204610BD2DE9F0411F46DDE90834DDF8CC
:1082FC00188098450646154607D1079900F0B4F842
:10830C0018B165710020BDE8F0813946304600F0A7
:10831C00ABF80028F6D00123C4F800802571A371B6
:10832C00F0E738B515461C4600F09EF820B108233E
:10833C00E36006232560237138BD73B505460C46F2
:10834C0001921E4600F090F850B9032E08D823680D
:10835C00019A5B692946204602B0BDE87040184777
:10836C0002B070BD10B5034B03600446FFF7A6FFC7
:10837C00204610BD6C9A0B0010B50446FFF7F2FFB7
:10838C0020460C21FBF785FE204610BDF7B5089F53
:10839C00974205460E4614460AD0A868026808970C
:1083AC00156A31462246AC4603B0BDE8F040604742
:1083BC001946019300F058F8019B0028EDD00620D7
:1083CC0003B0F0BD2DE9F14F0D461946DDE90A4B1E
:1083DC00DDE90CA681461746984600F045F890B1A9
:1083EC00002D3460377109DB61198A450CBF0621F9
:1083FC000121B171002001B0BDE8F08F0235F9D137
:10840C000123B371F6E7544506D15946484600F0AE
:10841C002BF808B17771EDE7D9F808000368CDE9BE
:10842C000CA6CDE90A4BDC693A4643462946A446DC
:10843C0001B0BDE8F04F60472DE9F04107460C460E
:10844C0015461E46FFF76DFF48B9B86803689F696B
:10845C002A4633462146BC46BDE8F0416047BDE89C
:10846C00F081704700207047814208B50ED04068FB
:10847C0003782A2B0CD049680B782A2B08BF0131C2
:10848C0000F05AF8B0FA80F0400908BD0120FCE772
:10849C000020FAE7002301461A46184600F0FEB801
:1084AC000A22002100F0F0B80A22002100F0ECB8FA
:1084BC000A44914200F1FF3300D1704710B511F816
:1084CC00014B03F8014F9142F9D110BD0244034610
:1084DC00934200D1704703F8011BF9E738B5104BF4
:1084EC001D68AB6B0446B3B91820FEF77FFC02463F
:1084FC00A86320B90B4B0C484221FEF7A7FC0B4993
:10850C000B4BC0E900130B4B83600B2383810021C1
:10851C000120C2E90401AB6B00221C615A6138BD19
:10852C0014E50320A59A0B00BC9A0B000E33CDABBF
:10853C0034126DE6ECDE050010F8012B11F8013B4E
:10854C00012A28BF9A42F7D0D01A7047034613F875
:10855C00012B002AFBD1181A0138704710B50139CC
:10856C00034632B111F8014F03F8014B013A002CCC
:10857C00F7D11A440021934200D110BD03F8011B1E
:10858C00F9E70000012B2DE9F04701D0242B06D987
:10859C00FEF754FC162303600020BDE8F087DFF8DB
:1085AC00E4C00D462E4615F8014B14F80C7017F06C
:1085BC000807F7D12D2C32D12C780127B51C002BB4
:1085CC005BD0102B09D1302C07D12C7804F0DF04B0
:1085DC00582C4DD16C781023023507F1004808F166
:1085EC00FF384FF0000CB8FBF3F9664603FB198A11
:1085FC00A4F1300EBEF1090F16D87446A34224DD47
:10860C00BCF1000F1EDBB1451CD301D1A24519DB17
:10861C0006FB03464FF0010C15F8014BE8E72B2C39
:10862C0004BF2C78B51CCAE7A4F1410EBEF1190F9A
:10863C0001D8373CE2E7A4F1610EBEF1190F04D862
:10864C00573CDBE74FF0FF3CE6E7BCF1000F05DAE7
:10865C0022230360464642B930469EE707B1764274
:10866C00002AF9D0BCF1000F00D0691E1160F3E7AD
:10867C003024002BB1D10823AFE7302CA5D00A232E
:10868C00ABE700BF169B0B0013460A460146024897
:10869C000068FFF777BF00BF14E503202DE9F8430E
:1086AC00DFF8B8800646D8F800001F460D46914604
:1086BC0000F056F8254B1C6834B9254C1C60254B32
:1086CC0013B11B68C4F8883063681F2B07DDD8F81A
:1086DC00000000F047F84FF0FF30BDE8F8834EB3D0
:1086EC00D4F8880088B91C4B23B9D8F8000000F0E6
:1086FC0038F8F0E74FF48470FEF778FB0028F4D0DC
:10870C000023C0E94033C4F88800636840F8239024
:10871C0001229A4000EB8301D0F800311343C0F8DA
:10872C000031022EC1F8807002BFD0F8043113431F
:10873C00C0F804316368D8F800005A1C0233626038
:10874C0044F8235000F00EF80020C6E7E8E70320B9
:10875C005CE7032000000000F96D0B0078E50320B6
:10876C0070477047704700001D400B0059400B00CC
:10877C0081400B0085400B000000000043616C6CD5
:10878C00206F6E2070757265207669727475616CDD
:10879C000031003000256900256C6900636872693E
:1087AC00737469616E69747900696E006F75740019
:1087BC0070776D00647700617700636164652F6C7E
:1087CC00656400636164652F627574746F6E730009
:1087DC004100430067657639556C574875705338BE
:1087EC007943424A3277704458444E6D3654484D62
:1087FC0075306F53006C61622E74686577636C2EF4
:10880C00636F6D00626C6E6B696E660076657200EC
:10881C00312E312E3000682D6265617400343500C4
:10882C00627566662D696E0031303234006465768F
:10883C00005061727469636C65204172676F6E00E1
:10884C006275696C64004A756C20203620323032B7
:10885C00322031333A30383A313900000000000010
:10886C0000003E5B4F5B3E3E6B4F6B3E1C3E7C3EC6
:10887C001C183C7E3C181C577D571C1C5E7F5E1CD4
:10888C0000183C1800FFE7C3E7FF0018241800FF8E
:10889C00E7DBE7FF30483A060E2629792926407F88
:1088AC00050507407F05253F5A3CE73C5A7F3E1C97
:1088BC001C08081C1C3E7F14227F22145F5F005F83
:1088CC005F06097F017F006689956A606060606061
:1088DC0094A2FFA29408047E040810207E201008A5
:1088EC00082A1C08081C2A08081E101010100C1E40
:1088FC000C1E0C30383E3830060E3E0E06000000C2
:10890C00000000005F00000007000700147F147FC8
:10891C0014242A7F2A1223130864623649562050E5
:10892C000008070300001C2241000041221C002A01
:10893C001C7F1C2A08083E080800807030000808BC
:10894C00080808000060600020100804023E51492D
:10895C00453E00427F400072494949462141494DFC
:10896C00331814127F1027454545393C4A49493183
:10897C0041211109073649494936464949291E0002
:10898C0000140000004034000000081422411414AC
:10899C00141414004122140802015909063E415DC9
:1089AC00594E7C1211127C7F494949363E41414156
:1089BC00227F4141413E7F494949417F09090901D3
:1089CC003E414151737F0808087F00417F410020E0
:1089DC0040413F017F081422417F404040407F02CC
:1089EC001C027F7F0408107F3E4141413E7F0909F4
:1089FC0009063E4151215E7F0919294626494949FC
:108A0C003203017F01033F4040403F1F2040201FA5
:108A1C003F4038403F631408146303047804036137
:108A2C0059494D43007F4141410204081020004147
:108A3C0041417F04020102044040404040000307D2
:108A4C00080020545478407F284444383844444427
:108A5C0028384444287F385454541800087E09029E
:108A6C0018A4A49C787F0804047800447D4000205E
:108A7C0040403D007F1028440000417F40007C04B2
:108A8C007804787C080404783844444438FC18246E
:108A9C00241818242418FC7C080404084854545442
:108AAC002404043F44243C4040207C1C2040201CD7
:108ABC003C4030403C44281028444C9090907C44DE
:108ACC0064544C440008364100000077000000411B
:108ADC0036080002010204023C2623263C1EA1A1FA
:108AEC0061123A4040207A385454555921555579E1
:108AFC0041225454784221555478402054557940A1
:108B0C000C1E527212395555555939545454593901
:108B1C00555454580000457C410002457D420001EB
:108B2C00457C407D1211127DF0282528F07C54558F
:108B3C0045002054547C547C0A097F4932494949E8
:108B4C00323A4444443A324A4848303A4141217A14
:108B5C003A42402078009DA0A07D3D4242423D3DDE
:108B6C004040403D3C24FF2424487E4943662B2F43
:108B7C00FC2F2BFF0929F620C0887E0903205454B2
:108B8C0079410000447D413048484A323840402207
:108B9C007A007A0A0A727D0D19317D2629292F282F
:108BAC00262929292630484D40203808080808086D
:108BBC00080808382F10C8ACBA2F102834FA000057
:108BCC007B000008142A142222142A14085500557C
:108BDC000055AA55AA55AAFF55FF55FF000000FFE6
:108BEC0000101010FF00141414FF001010FF00FFF1
:108BFC001010F010F0141414FC001414F700FF0003
:108C0C0000FF00FF1414F404FC141417101F1010B0
:108C1C001F101F1414141F00101010F0000000007F
:108C2C001F101010101F10101010F010000000FF7B
:108C3C00101010101010101010FF10000000FF1476
:108C4C000000FF00FF00001F10170000FC04F414CC
:108C5C00141710171414F404F40000FF00F7141484
:108C6C001414141414F700F7141414171410101F00
:108C7C00101F141414F4141010F010F000001F1036
:108C8C001F0000001F14000000FC140000F010F086
:108C9C001010FF10FF141414FF141010101F0000FC
:108CAC000000F010FFFFFFFFFFF0F0F0F0F0FFFF0F
:108CBC00FF0000000000FFFF0F0F0F0F0F384444A0
:108CCC003844FC4A4A4A347E02020606027E027E80
:108CDC000263554941633844443C04407E201E20C5
:108CEC0006027E020299A5E7A5991C2A492A1C4C6A
:108CFC007201724C304A4D4D303048784830BC626D
:108D0C005A463D3E494949007E0101017E2A2A2AE4
:108D1C002A2A44445F444440514A444040444A5106
:108D2C00400000FF0103E080FF000008086B6B08A7
:108D3C003612362436060F090F06000018180000EC
:108D4C00001010003040FF0101001F01011E00192E
:108D5C001D1712003C3C3C3C0000000000000000D1
:108D6C0000000000000000000000000000000000F7
:108D7C006D530B0061720B00A5400B00734D0B0083
:108D8C00754D0B00A74D0B00834D0B00954D0B0043
:108D9C00B54C0B00734D0B009F4F0B009D4F0B0000
:108DAC00BF4D0B00FD4D0B00374E0B007D4E0B00E5
:108DBC00994E0B001D4F0B0064656661756C742039
:108DCC00004D5342004C5342003C53504953657480
:108DDC0074696E67732064656661756C743E003CE3
:108DEC0053504953657474696E67732025732575E8
:108DFC00202573204D4F444525753E000000000092
:108E0C0000000000A9540B007B540B007D540B0098
:108E1C0000000000000180000000000000000000C5
:108E2C00038000000000000000000007C0000000EC
:108E3C0000000000000007C000000000000000005F
:108E4C00000FC00000000000000000001FE0000048
:108E5C00000000000000001FE00000000000000007
:108E6C0000003FE00000000000000000003FF000A8
:108E7C0000000000000000007FF000000000000077
:108E8C00001FF87FF0000000000000003FFE7FF0A4
:108E9C00000000000000003FFF7FF0000000000019
:108EAC0000001FFFFBE0000000000000000FFFF9B6
:108EBC00FFC00000000000000FFFF9FFF8000000E9
:108ECC0000000007FFF1FFFF00000000000003FCA2
:108EDC0073FFFF80000000000001FE3FFFFF8000D9
:108EEC000000000000FF1E0FFF000000000000004B
:108EFC007FFE1FFC000000000000003FFFFFF80099
:108F0C000000000000000FDFFFE000000000000088
:108F1C00001F19FFC0000000000000003F3CFF00D4
:108F2C00000000000000007E7CF800000000000043
:108F3C0000007FFE7C0000000000000000FFFFFC32
:108F4C000000000000000000FFFFFE000000000019
:108F5C00000000FFFFFE0000000000000001FFEF1A
:108F6C00FE0000000000000001FFCFFE000000002A
:108F7C0000000003FF07FE0000000000000003FCDF
:108F8C0007FE0000000000000003F003FE000000DC
:108F9C0000000000018000FE000000000000000046
:108FAC0000007E000000000000000000003E0000F9
:108FBC0000000000000000000C0000000000000792
:108FCC008000FC000003C0000000078001FC0000D2
:108FDC0003C0000000078001FC000003C00000007B
:108FEC00078001E00000001E000000078001E00087
:108FFC0000001E007FE3F79FF9FDE7787BDFC0FFE1
:10900C00F7FFBFFDFDFF787BDFC0FFF7FFBFFDFD66
:10901C00FF787BDFC0F0F787BC3DE1FF787BDE009B
:10902C00F0F787BC3DE1F0787BDE0000F787803DF0
:10903C00E1E0787BDE007FF7879FFDE1E0787BDE67
:10904C0000FFF787BFFDE1E0787BDE00F0F787BC1F
:10905C003DE1E0787BDE00F0F787BC3DE1E0787B1A
:10906C00DE00F0F787BC3DE1E0787BDE00FFF7FF28
:10907C00BFFDE1E07FFBDFC0FFF7FFBFFDE1E07F5D
:10908C00FBDFC07CF3F39F3DE1E03E7BCFC00000F3
:10909C00000000000000000000FFFFFFFFFFFFFFCB
:1090AC00FFFFFFC0FFFFFFFFFD68DB111A31C0FFA0
:1090BC00FFFFFFFD2B5AFB6AEFC0FFFFFFFFFD4BCD
:1090CC005B3B1A33C0FFFFFFFFFD6B5BDB6AFDC030
:1090DC000000600000000000000000000000000024
:1090EC0000E0000000000000000000000000000193
:1090FC00E00000000000000000000000000001F093
:10910C000000000000000000000000000003F00060
:10911C0000000000000000000000000007F000004C
:10912C00000000000000000000000007F800000034
:10913C00000000000000000000000FF80000000319
:10914C00C0007E000001E0007F0FF800000003C0AB
:10915C0000FE000001E000FFEFF800000003C0007B
:10916C00FE000001E000FFFFF800000003C000F06B
:10917C000000000F007FFE7FC0000003C000F00065
:10918C0000000F003FFE7FF83FF1FBCFFCFEF3BC6D
:10919C003DEFE01FFE7FFF7FFBFFDFFEFEFFBC3DD0
:1091AC00EFE01FC6FFFF7FFBFFDFFEFEFFBC3DEFC6
:1091BC00E00FE3C7FE787BC3DE1EF0FFBC3DEF0083
:1091CC0007FF87FC787BC3DE1EF0F83C3DEF000107
:1091DC00FFFFF0007BC3C01EF0F03C3DEF0001F33D
:1091EC007FE03FFBC3CFFEF0F03C3DEF0003E33FDD
:1091FC00807FFBC3DFFEF0F03C3DEF0007E73C0057
:10920C00787BC3DE1EF0F03C3DEF0007FFBE00781C
:10921C007BC3DE1EF0F03C3DEF0007FFFE00787BC9
:10922C00C3DE1EF0F03C3DEF000FFFFE007FFBFFA6
:10923C00DFFEF0F03FFDEFE00FFFFF007FFBFFDFF5
:10924C00FEF0F03FFDEFE00FF9FF003E79F9CF9E05
:10925C00F0F01F3DE7E01FF1FF00000000000000F0
:10926C0000000000001F80FF007FFFFFFFFFFFFFDB
:10927C00FFFFFFE01C007F007FFFFFFFFEB46D8847
:10928C008D18E000001F007FFFFFFFFE95AD7DB540
:10929C0077E000000F007FFFFFFFFEA5AD9D8D194D
:1092AC00E0000006007FFFFFFFFEB5ADEDB57EE0F0
:1092BC000000000000000000FD540B0015550B00D1
:1092CC006D530B0061720B0029550B00734D0B0095
:1092DC00754D0B00A74D0B00834D0B00954D0B00EE
:1092EC00B54C0B00734D0B009F4F0B00C7560B007A
:1092FC006F5C0B00215C0B00374E0B007D4E0B009E
:10930C00994E0B001D4F0B000080C0E0F0F8FCFEE6
:10931C00000103070F1F3F7FAED580A8D300408DFF
:10932C002000A1C8DB40A4A62EAFDA02818FDA128E
:10933C0081DA02812200FF210000044D51545404B3
:10934C0000064D51497364700300000031670B0037
:10935C0031670B0031670B0031670B0031670B0075
:10936C0031670B0031670B0031670B0031670B0065
:10937C0031670B0031670B0031670B0031670B0055
:10938C0031670B0031670B0031670B0031670B0045
:10939C0031670B0031670B0031670B0031670B0035
:1093AC0031670B0031670B0031670B0031670B0025
:1093BC0031670B0031670B0031670B0031670B0015
:1093CC0031670B0031670B0031670B0031670B0005
:1093DC0031670B0031670B0031670B0031670B00F5
:1093EC0031670B0031670B0031670B0031670B00E5
:1093FC0031670B0031670B0031670B0031670B00D5
:10940C0031670B0031670B0031670B0031670B00C4
:10941C0031670B0031670B0031670B0031670B00B4
:10942C0031670B0031670B0031670B0031670B00A4
:10943C0031670B0031670B0031670B0031670B0094
:10944C0031670B0031670B0031670B0031670B0084
:10945C0031670B0031670B0031670B0031670B0074
:10946C0031670B0031670B0031670B0031670B0064
:10947C0031670B0031670B0031670B0031670B0054
:10948C0031670B0031670B0031670B0031670B0044
:10949C0031670B0031670B0031670B0031670B0034
:1094AC0031670B0031670B0031670B0031670B0024
:1094BC0031670B0031670B0031670B0031670B0014
:1094CC0031670B0031670B0031670B0031670B0004
:1094DC0031670B0031670B0031670B0031670B00F4
:1094EC0031670B0031670B0031670B0031670B00E4
:1094FC0031670B0031670B0031670B0031670B00D4
:10950C0031670B0031670B0031670B0031670B00C3
:10951C0031670B0031670B0031670B0031670B00B3
:10952C0031670B0031670B0031670B0031670B00A3
:10953C0031670B0031670B0031670B0031670B0093
:10954C0031670B0031670B0031670B0033670B0081
:10955C005D420B0033670B0033670B0033670B0066
:10956C0033670B0033670B0033670B0033670B005B
:10957C0033670B0033670B0033670B0033670B004B
:10958C0033670B0033670B0033670B0033670B003B
:10959C0033670B0033670B0033670B0033670B002B
:1095AC0033670B0033670B0033670B0033670B001B
:1095BC0033670B0033670B0033670B0033670B000B
:1095CC0033670B0033670B0033670B0033670B00FB
:1095DC0033670B0033670B0033670B0033670B00EB
:1095EC0033670B0033670B0033670B0033670B00DB
:1095FC0033670B0033670B0033670B0033670B00CB
:10960C0033670B0033670B0033670B0033670B00BA
:10961C0033670B0033670B0033670B0033670B00AA
:10962C0033670B0033670B0033670B0033670B009A
:10963C0033670B0033670B0033670B0033670B008A
:10964C0033670B0033670B0033670B0033670B007A
:10965C0033670B0033670B0033670B0033670B006A
:10966C0033670B0033670B0033670B0033670B005A
:10967C0033670B0033670B0033670B0033670B004A
:10968C0033670B0033670B0033670B0033670B003A
:10969C0033670B0033670B0033670B0033670B002A
:1096AC0033670B0033670B0033670B0033670B001A
:1096BC0033670B0033670B0033670B0033670B000A
:1096CC0033670B0033670B0033670B0033670B00FA
:1096DC0033670B0033670B0033670B0033670B00EA
:1096EC0033670B0033670B0033670B0033670B00DA
:1096FC0033670B0033670B0033670B0033670B00CA
:10970C0033670B0033670B0033670B0033670B00B9
:10971C0033670B0033670B0033670B0033670B00A9
:10972C0033670B0033670B0033670B0033670B0099
:10973C0033670B0033670B0033670B0033670B0089
:10974C0033670B0033670B0033670B00000000001E
:10975C000000000061670B0081670B006D530B006C
:10976C0061720B0029550B00734D0B00754D0B00EE
:10977C00A74D0B00834D0B00954D0B00B54C0B000A
:10978C00734D0B009F4F0B00C7560B006F5C0B000B
:10979C00215C0B00374E0B007D4E0B00994E0B00DD
:1097AC001D4F0B0000000000000000000000000036
:1097BC0000000000EF6E0B00E56E0B00DB6E0B0083
:1097CC00D16E0B00C56E0B00B96E0B003D710B001A
:1097DC0045710B00AD6E0B00A56E0B009B6E0B0064
:1097EC00916E0B0075710B00000000000000000072
:1097FC000D6F0B00576F0B002F6F0B000F6F0B00D3
:10980C00376F0B003F6F0B00476F0B004F6F0B0058
:10981C000000000000000000C96F0B00B96F0B00C6
:10982C00BB6F0B00617070000000000000000000B6
:10983C00FD700B0007710B0011710B001B710B00FD
:10984C0025710B0031710B003D710B0045710B0044
:10985C004D710B0059710B0061710B006B710B009A
:10986C0075710B0000081018202830387769726960
:10987C006E670072656376206572726F72203D2090
:10988C0025640000000000000000000041770B0080
:10989C0065770B00977C0B0073770B0045770B00FB
:1098AC000000000000000000F1770B0025780B0091
:1098BC00BD760B00D7760B002D7B0B0001770B00D0
:1098CC00A3790B0035770B00357A0B0075780B00FC
:1098DC00D1790B00E17B0B0071790B0037770B0012
:1098EC00E9760B0079770B0055780B0025592D255F
:1098FC006D2D25645425483A254D3A2553257A007B
:10990C0061736374696D6500000000000000000065
:10991C00B17C0B001D7D0B00F57C0B0061720B0004
:10992C00C57C0B00E17C0B00D37C0B00EF7C0B00A7
:10993C00B37C0B00B77C0B000000000000000000A3
:10994C005B7D0B00C37D0B00997D0B0061720B00DE
:10995C008B7D0B005D7D0B006D7D0B00BD7D0B00C9
:10996C007D7D0B00557D0B00000000000000000009
:10997C00BB7E0B00B17E0B00A77E0B005D7E0B0047
:10998C009B7E0B008F7E0B003D710B0045710B0015
:10999C00837E0B007B7E0B00717E0B00677E0B00C1
:1099AC0075710B0000537431395F53705F6D616BCF
:1099BC00655F7368617265645F74616700000000C5
:1099CC000C9A0B00B1990B006C9A0B00E0990B00F0
:1099DC00909A0B004E31305F5F63787861626976E4
:1099EC003131375F5F636C6173735F747970655F7E
:1099FC00696E666F4500000000000000D4990B00F2
:109A0C00C9820B00DD820B0071840B0071840B008A
:109A1C0047830B0089820B002F830B00F1820B0014
:109A2C00BB820B006C9A0B003C9A0B00D4990B0078
:109A3C004E31305F5F637878616269763132305FC6
:109A4C005F73695F636C6173735F747970655F6971
:109A5C006E666F450000000000000000309A0B009D
:109A6C0071830B0085830B0071840B0071840B00D8
:109A7C0047830B0089820B0045840B00D1830B00BC
:109A8C0099830B000C9A0B00989A0B005374397441
:109A9C007970655F696E666F005245454E54206D56
:109AAC00616C6C6F632073756363656564656400DA
:109ABC002F746D702F6A656E6B696E732D474343FF
:109ACC002D31302D706970656C696E652D34385F81
